:020000040800F2
:1000000000000220FD5D0008C1170008C3170008AA
:10001000C5170008C7170008C9170008000000002E
:10002000000000000000000000000000D14E0008A9
:10003000CB17000800000000714F0008B54F000802
:100040004D5E00084D5E00084D5E00084D5E0008E4
:100050004D5E00084D5E00084D5E00084D5E0008D4
:100060004D5E00084D5E00084D5E0008CD1700088B
:100070004D5E00084D5E00084D5E00084D5E0008B4
:10008000DD1700084D5E00084D5E00084D5E00085B
:100090004D5E00084D5E00084D5E00084D5E000894
:1000A0004D5E00084D5E00084D5E00084D5E000884
:1000B0004D5E00084D5E00084D5E00084D5E000874
:1000C0004D5E00084D5E00084D5E00084D5E000864
:1000D0004D5E00084D5E00084D5E00084D5E000854
:1000E0004D5E00084D5E00084D5E00084D5E000844
:1000F0004D5E00084D5E00084D5E00084D5E000834
:100100004D5E00084D5E00084D5E00084D5E000823
:100110004D5E00084D5E0008ED1700084D5E0008BA
:10012000FD1700084D5E00084D5E00080D18000820
:100130004D5E000800000000000000004D5E000859
:100140004D5E00084D5E00084D5E00084D5E0008E3
:100150004D5E00084D5E00084D5E00084D5E0008D3
:100160004D5E00084D5E00081D1800082D1800089F
:100170004D5E00083D180008000000004D5E0008BC
:040180004D5E0008C8
:1001900053B94AB9002908BF00281CBF4FF0FF31EE
:1001A0004FF0FF3000F00CB8ADF1080C6DE904CE53
:1001B00006F016FEDDF804E0DDE9022304B0704726
:1001C000704700BF0348044B834202D0034B03B186
:1001D00018477047E4010020E401002000000000FF
:1001E00005480649091A891001EBD171491002D05E
:1001F000034B03B118477047E4010020E4010020DD
:100200000000000010B5064C237843B9FFF7DAFF71
:10021000044B13B10448AFF300800123237010BDD9
:10022000E401002000000000B070000808B5054B94
:100230001BB105490548AFF30080BDE80840FFF752
:10024000CFBF00BF00000000E8010020B070000830
:1002500010B5A6B000230593802206A9684600F0D9
:10026000FBF80D23059305AA0B49684600F0A2FB95
:10027000039948B9049929B1084805F0CBFE01203B
:1002800026B010BD0649F7E7044689B206A801F07A
:1002900081FA2046F4E700BFE8710008E470000826
:1002A000DC7000080160416000238360C2608B78CD
:1002B0001A44026191F903301A444261087800300F
:1002C00018BF0120704743681A78002A36D070B5ED
:1002D00003F10A024260997A21B31D79597801F03D
:1002E0003004302C07D1567806F03006302E02D17B
:1002F0009678FF2E24D001F0F006202E18D001F0C1
:10030000C001802918D014B9836801338360036960
:10031000917829440B44036192F90320134443610B
:10032000012070BDC2680168FFF7BCFF0020F8E73C
:100330005B7903FB05F5E6E70425E4E70020704759
:100340000120EEE710B44468A318436000239342F1
:1003500003D2C85CE0540133F9E7012010BC7047B8
:1003600052F8043B63B110B504469847034608B100
:10037000184610BD22690AB12261F9E7024AFBE77B
:1003800001231846704700BF54710008704710B52C
:1003900086B0437890F9034013F0300256D0202AFB
:1003A00012D0302A15D0102A18D013F0C00F42D125
:1003B00003F00F03052B17D0062B1AD0092B1DD0E5
:1003C000072B20D0002337E00B5DB3FA83F35B09E2
:1003D0003DE00B5DB3FA83F35B0938E0002CE4D019
:1003E0000B5D83F0010332E00B78B3FA83F35B0912
:1003F0002DE00B78B3FA83F35B0928E00379B3FAB5
:1004000083F35B0923E0D0F806400846FFF7BEFF00
:10041000024621466846FFF745FF50B1049901980E
:10042000FFF7B5FF034690B16846FFF74CFF002881
:10043000F4D101230BE0002302799A4204D9CA5C6B
:1004400042B90133DBB2F7E7012300E0002318468D
:1004500006B010BD0023FAE710B4044C04604160FC
:1004600082600022C260026110BC70474503000830
:1004700070B504461546066846B1C36813448268E1
:10048000934209D82A46B047034660B1E3681D4449
:10049000E5600123184670BD036913B12361002391
:1004A000F8E7044BFAE722690AB12261F2E7024A4F
:1004B000FBE700BFD0710008DC71000830B585B0E3
:1004C000002B08BF802A11D3002452EA030115D063
:1004D00062F07F0504A9214401F80C5CD10941EACE
:1004E0004361DD090A462B460134EEE78DF803200F
:1004F00001220DF10301FFF7BBFF0CE0631E04AA0C
:10050000134413F80C2C02F07F0203F80C2C224643
:1005100001A9FFF7ADFF05B030BD000008B50B79AC
:10052000012B07D0022B0AD0042B0BD0082B0CD1A7
:100530000CCA01E012780023FFF7C0FF08BD128843
:100540000023F9E712680023F6E7036913B103619A
:100550000020F3E7004BFAE79471000808B50B7927
:10056000012B07D0022B0BD0042B0DD0082B0ED162
:100570000CCA02E092F90020D317FFF79FFF08BDD5
:10058000B2F90020D317F8E71268D317F5E703692B
:1005900013B103610020F2E7004BFAE79471000801
:1005A0002DE900489C46002A73F1000306DB9218EF
:1005B0004CEB0C03FFF782FFBDE8008892184CEB70
:1005C0000C03D243DB43F5E708B50B79012B07D0C9
:1005D000022B0BD0042B0DD0082B0ED10CCA02E03D
:1005E00092F90020D317FFF7DBFF08BDB2F9002016
:1005F000D317F8E71268D317F5E7036913B103615E
:100600000020F2E7004BFAE79471000800B583B0D0
:100610000B688DF80430C3F307228DF80520C3F36F
:1006200007428DF806201B0E8DF8073004220DEBD3
:100630000201FFF71DFF03B05DF804FB08B511468A
:10064000FFF7E4FF08BD00B583B00A684B688DF87A
:100650000020C2F307218DF80110C2F307418DF885
:100660000210120E8DF803208DF80430C3F3072218
:100670008DF80520C3F307428DF806201B0E8DF878
:10068000073008226946FFF7F3FE03B05DF804FB6C
:1006900008B51146FFF7D7FF08BD08B5134641EA74
:1006A000C2025B0FFFF70AFF08BD000010B54B78D0
:1006B00003F00F03092B0AD8DFE803F01010101223
:1006C00005070707090701240BE0022409E0036975
:1006D00013B10361002008E0044BFAE7002400E0B6
:1006E00005240A782146FFF7D8FF10BDBC71000829
:1006F0002DE9F04F87B0DDF84090002B00F08880A6
:1007000007460C46154698464B7803F0C002802AEF
:1007100002D04A79424505D303F00F03042B09D9CF
:10072000002658E003691BB13B614FF0000A71E0FD
:100730003B4BF9E7227802213846FFF7AEFF8246AD
:10074000002867D0637803F00F03032B15D0042B28
:100750002CD0002601960296039604960596AB4689
:10076000464526D25A46214601A8C8478246002857
:1007700050D023799B440136F2E74FEA880632468F
:1007800000233846FFF79AFE8246002842D03B6895
:100790008BB1002646453DD22A4621463846C847F9
:1007A00000283BD023791D440136F3E74FEAC80601
:1007B000E5E7049EE3E7324600213846FFF758FE9E
:1007C000824627E02A4621463846C847824608B373
:1007D00023791D440136464517D221463846FFF796
:1007E00065FF8246B0B1637803F0C002802AE9D188
:1007F00003F00F03053B012BE4D82A682146384655
:10080000C84782460028E3D104E04FF0010A01E026
:100810004FF0010A504607B0BDE8F08F8246F9E775
:1008200024710008F0B585B006460C4615464A7896
:1008300002F00F013D4B53F8217094F90330A3B13E
:10084000EA18637803F0C001802923D003F0300355
:10085000102B3CD025D9202B49D0302B5FD11278DA
:1008600023789A424ED0012349E002F03002102A48
:1008700005D001238DF80F300DF10F02E1E7294675
:100880002046FFF784FD80F001008DF80F000DF188
:100890000F02D6E72D68291C18BF01218DF80F1013
:1008A000D4E7002B3BD15DB121463046FFF7FEFE79
:1008B000034620B32A4621463046B84703461EE089
:1008C000336913B13361002319E0194BFAE7137848
:1008D0000BB9012313E021463046FFF7E7FE03463C
:1008E00068B12A4621463046B847034607E01378E8
:1008F00000972A4621463046FFF7FAFE034618467F
:1009000005B0F0BD21463046FFF7D0FE0346002873
:10091000F5D02A4621463046B8470346EFE733690B
:1009200013B133610023EAE7024BFAE7FC700008D9
:100930003C710008BC71000808B54B7803F0C00397
:10094000402B0AD0802B05D023B1036943B103614A
:10095000002001E0FFF766FF08BDFFF701FDFBE7A0
:10096000004BF4E7BC71000808B50A460B689968AB
:100970004B7803F0C003802B03D05268FFF7DCFFF5
:1009800008BD0432FFF7D8FFFAE738B5054614680A
:1009900005E021462846FFF7E7FF50B1A4683CB1C7
:1009A00023685B68002BF4D0214628469847F4E77B
:1009B000012038BD30B587B004460D461046FFF71C
:1009C000E5FC024629466846FFF76CFC054668B917
:1009D0000125284607B030BD049A2046FFF7D5FF11
:1009E00090B16846FFF76FFC0028F2D001994B7870
:1009F00003F00F03082BEFD0049A2046FFF79CFF6B
:100A00000028EED10546E4E70546E2E770B5044666
:100A10000D4616460023FFF751FD034608B9184658
:100A200070BD324629462046FFF722FD0346F6E711
:100A300008B513460A791946FFF7E8FF08BD38B52F
:100A40000B4611461D795B7803F0C003802B03D061
:100A500079B10B46002204E04FF0FF35F8E7013290
:100A60000133AA4202D21C78002CF8D1FFF7CEFF46
:100A700038BD0022FAE7000008B57AB113464A787B
:100A800012F0C00F04D11A78013209798A4209D8CC
:100A9000194611F8012BFFF7B9FF08BD1146FFF702
:100AA000B5FFFAE7036913B103610020F5E7014BD5
:100AB000FAE700BF64710008F0B587B004460E463F
:100AC000174600230193029303930493059301A80F
:100AD000FFF770FF28B90346059A2261184607B050
:100AE000F0BD049D2A4600232046FFF7E7FC03469D
:100AF0000028F3D022684AB1E3682B44A1688B42F6
:100B00000DD923694BB123610023E7E72A46002171
:100B10002046FFF7ADFC0346E0E70F4BF3E70192F9
:100B20006368029303950023049305933A46314684
:100B300001A8FFF73FFF03460499E2680A44E26018
:100B4000029A6260059A2261A942C7D012B122615D
:100B50000023C3E7014AFAE7D0710008A871000832
:100B600008B5D1F8061011B1FFF7A6FF08BD03695B
:100B700013B103610020F9E7004BFAE77871000830
:100B800070B592B00024089409940A940B940194CF
:100B90000294039404940594012306930793022579
:100BA0000C954FF480060D9608230E93F0230F93B7
:100BB00010950423119306A802F094FD0F230193CE
:100BC000029503944FF4A05304934FF4805305937C
:100BD000032101A803F02AF822463146204602F0FC
:100BE00067FF02F0B3FF12B070BD08B502F038FD28
:100BF000FFF7C6FF00F020F800F0C6F800F070F82C
:100C000000F07AF900F0ACF900F0CAF900F0DAFA75
:100C100000F020F903F0D2FFFEE7000008B50268FB
:100C2000034B9A4200D008BD02F034FDFBE700BF41
:100C3000001000407047000000B58DB000220992FE
:100C40000A920B920192244B196B41F080011963B7
:100C5000196B01F08001019101990292196B41F029
:100C600004011963196B01F00401029102990392C6
:100C7000196B41F001011963196B01F00101039136
:100C800003990492196B41F002011963196B01F089
:100C90000201049104990592196B41F01001196346
:100CA000196B01F010010591059906921A6B42F03B
:100CB00008021A631B6B03F008030693069B4FF4AC
:100CC000807307930223089307A9044803F008F9E7
:100CD0000DB05DF804FB00BF003802400000024088
:100CE00008B50B480B4B036010234360002383605F
:100CF000C36003614361037643768376C3760377EB
:100D0000437702F0EDF800B908BDFFF793FFFBE76A
:100D1000603F00200064004000B589B000230393C9
:100D200004930593069307930268154B9A4202D0E9
:100D300009B05DF804FB0021019103F5EA331A6C58
:100D400042F000721A641A6C02F000720192019A69
:100D500002911A6B42F001021A631B6B03F001034C
:100D60000293029B4FF4C053039302230493032383
:100D700006930923079303A9024803F0B1F8D7E7C4
:100D8000006400400000024000B583B000230093DF
:100D9000294A116B41F400111163116B01F4001128
:100DA000009100990193116B41F480011163126B62
:100DB00002F480020192019A2048214A02604360B5
:100DC000802282604FF40072C2604FF48062026140
:100DD00043618361C361036204224262032282622F
:100DE000C362036303F0CAF910BB002205210B2084
:100DF00003F034F80B2003F065F8002205211020E1
:100E000003F02CF8102003F05DF8002205213820B3
:100E100003F024F8382003F055F8002205213B2088
:100E200003F01CF83B2003F04DF803B05DF804FB21
:100E3000FFF700FFD9E700BF00380240883F0020DD
:100E40002864024008B500F00FFA012003F0D5FE37
:100E5000FBE7000030B587B001AC064D0FCD0FC4E5
:100E60002B682360002101A803F0ADFE024B18603F
:100E700007B030BDC8700008E83F0020F0B587B06B
:100E8000002301930293039304930593164B1B686D
:100E90000BB107B0F0BD144B01221A60002600967A
:100EA000124B9A6B42F001029A639B6B03F00103B1
:100EB0000093009B4FF4F0630193022702970325F0
:100EC00004950C24059401A9094803F009F84DF68E
:100ED000F3030193029703960495059401A905482D
:100EE00002F0FEFFD5E700BF0002002000380240FC
:100EF00000100240000C024000B589B01448154BA8
:100F0000036010234360022383600023C3600361F6
:100F100043618361C36143628362C362036343636A
:100F2000836380F83C30FC23049305930693079376
:100F300000930193029303936A4604A902F0E2F836
:100F400010B909B05DF804FBFFF774FEF9E700BFC4
:100F5000EC3F0020600000A008B5FFF78FFF08BD40
:100F600008B50D480D4B03604FF4827343600023B6
:100F70008360C360036143614FF400728261C361A7
:100F80000362436283620A23C36202F0ECF800B991
:100F900008BDFFF74FFEFBE7E440002000300140B2
:100FA00008B50D480D4B03604FF482734360002376
:100FB0008360C360036143614FF400728261C36167
:100FC0000362436283620A23C36202F0CCF800B971
:100FD00008BDFFF72FFEFBE72C400020003C00403F
:100FE0002DE9F0418AB00446002305930693079348
:100FF000089309930368654A934205D0644A934273
:1010000070D00AB0BDE8F08100250095614B5A6CA4
:1010100042F480525A645A6C02F480520092009A50
:1010200001951A6B42F001021A631A6B02F0010279
:101030000192019A02951A6B42F002021A631B6B2D
:1010400003F002030293029BC02305934FF00208B2
:10105000CDF81880032708970526099605A94E485C
:1010600002F03EFF08230593CDF8188007950897F6
:10107000099605A9494802F033FF4948494B0360E6
:101080004FF0C06343608560C5604FF480630361C7
:1010900045618561C5610562456203F06FF8D8B9A5
:1010A0003F4BE3649C634048404B03604FF0C06398
:1010B0004360402383600023C3604FF48062026179
:1010C00043618361C3610362436203F057F830B93F
:1010D000354BA3649C6394E7FFF7ACFDE0E7FFF7B3
:1010E000A9FDF5E7002503952A4B1A6C42F400424E
:1010F0001A641A6C02F400420392039A04951A6B64
:1011000042F004021A631B6B03F004030493049B74
:101110004FF4E05305930223069303230893062319
:10112000099305A9224802F0DBFE2248224B036006
:1011300045608560C5604FF48063036145618561EA
:10114000C5610562456203F019F8C8B9194BE3643B
:101150009C631A481A4B036000234360402282605C
:10116000C3604FF48062026143618361C3610362C3
:10117000436203F003F830B9104BA3649C6340E76B
:10118000FFF758FDE2E7FFF755FDF5E700300140B6
:10119000003C0040003802400000024000040240D1
:1011A0003C410020106402409C41002058640240F1
:1011B00000080240FC4100201060024084400020F2
:1011C0008860024008B50A480A4B03604FF4E133D7
:1011D000436000238360C36003610C22426183612A
:1011E000C36102F00DFA00B908BDFFF723FDFBE76C
:1011F0005C420020004C004000B589B000230393FE
:1012000004930593069307930268154B9A4202D004
:1012100009B05DF804FB0021019103F5F6331A6C67
:1012200042F400221A641A6C02F400220192019A1C
:1012300002911A6B42F001021A631B6B03F0010367
:101240000293029B0323039302220492012205923C
:1012500006930823079303A9024802F041FED7E74B
:10126000004C00400000024008B501220F49104820
:1012700003F02EFF70B90F490D4803F040FF60B92D
:101280000D490B4804F073FD50B9094803F03EFFC7
:1012900048B908BDFFF7CEFCEDE7FFF7CBFCEFE761
:1012A000FFF7C8FCF1E7FFF7C5FCF2E700000020FC
:1012B0009C42002070000020500000202DE9F043E7
:1012C0008BB0002305930693079308930993026854
:1012D000424B9A4202D00BB0BDE8F0830025009546
:1012E0003F4C236B43F004032363236B03F004039D
:1012F0000093009B0195236B43F001032363236B51
:1013000003F001030193019B0295236B43F0020359
:101310002363236B03F002030293029B0D230593C7
:1013200002270697032608964FF00A08CDF8248076
:1013300005A92C4802F0D4FD2823059306970795AC
:101340000896CDF82480DFF8A49005A9484602F05D
:10135000C7FD102305930697079508960C2309935C
:1013600005A9484602F0BCFD43F6234305930697C2
:1013700007950896CDF8248005A91B4802F0B0FD1A
:101380000395236B43F000532363236B03F0005357
:101390000393039B0495236B43F080432363236BE8
:1013A00003F080430493049B2A4605214A2002F05F
:1013B00055FD4A2002F086FD2A4605214B2002F009
:1013C0004DFD4B2002F07EFD2A4605214D2002F006
:1013D00045FD4D2002F076FD7DE700BF0000044092
:1013E00000380240000802400004024000000240B1
:1013F00008B500F57171D0F8FC0303F0A0FE08BD3C
:1014000008B5C1EBC10293000344D3F80822D0F819
:10141000FC0303F0C2FE08BD08B5C1EBC102930096
:1014200003449A6CD0F8FC0303F001FF08BD08B533
:10143000D0F8FC0303F0A4FF08BD10B50446C36850
:101440003BB1022B01D1012104E0FFF7F3FB0121A5
:1014500000E00021D4F8FC0303F07BFFD4F8FC0388
:1014600003F04FFF10BD000010B50446D0F8FC0398
:1014700003F072FF2268D2F8003E43F00103C2F885
:10148000003E236A23B1034A136943F00603136144
:1014900010BD00BF00ED00E008B5D0F8FC0303F07C
:1014A00064FF08BD08B5D0F8FC0303F079FF08BD60
:1014B00008B5D0F8FC0303F071FF08BD08B5D0F8FB
:1014C000FC0303F06FFF08BD08B5D0F8FC0303F080
:1014D0006BFF08BD0378012B01D00020704710B5C9
:1014E00003461648C0F8FC33C3F8C002144B03602F
:1014F000062343600023C360012202618261C2614E
:101500000362C3620263436300F091FA90B90B4C2B
:101510004FF40071204600F01DFA80220021204681
:1015200000F0F4F94FF4BA720121204600F0EEF910
:10153000002010BDFFF77EFBE9E700BF60450020FB
:1015400000000440D0F8C03211F0800F08D101F043
:101550007F01C1EBC1018A00134493F8FE0170477B
:1015600001F07F01C1EBC1018A00134493F83E00F2
:10157000704708B5D0F8C00200F0AFFE08BD0228E1
:1015800007D8DFE800F002060400002070470120C1
:1015900070470220704708B5D0F8C00200F0D8FAB2
:1015A000FFF7EDFF08BD10B51C4613462246D0F8E4
:1015B000C00200F0EEFDFFF7E2FF10BD08B5D0F865
:1015C000C00200F026FEFFF7DAFF08BD08B5D0F82C
:1015D000C00200F0B5FEFFF7D2FF08BD08B5D0F895
:1015E000C00200F0EEFEFFF7CAFF08BD08B5D0F854
:1015F000C00200F0BAFDFFF7C2FF08BD08B5D0F881
:10160000C00200F073FEFFF7BAFF08BD08B5D0F8BE
:10161000C00200F034FEFFF7B2FF08BD12230B80BA
:10162000004870471C00002004230B8000487047CE
:10163000300000200023934216D230B40BE0373440
:1016400001F8134000015C00013400250D55013301
:10165000DBB2934206D2040F092CF0D8303401F8E3
:101660001340EFE730BC70477047000038B50A4BB5
:10167000186804331C6804331B68C01800D138BDD7
:10168000064D0822A91CFFF7D5FF042205F112011F
:101690002046FFF7CFFFF2E7107AFF1F340000204B
:1016A00008B51A230B80FFF7E1FF014808BD00BF12
:1016B0003400002008B50A4628B90549054804F059
:1016C000ABF9034808BD0249024804F0A5F9F8E760
:1016D000604900203872000810B5044C0A462146C3
:1016E000034804F099F9204610BD00BF604900206E
:1016F0002472000808B50A4628B90549054804F0CF
:101700008BF9034808BD0249024804F085F9F8E75F
:10171000604900200872000808B50A4628B9054942
:10172000054804F079F9034808BD0249024804F06D
:1017300073F9F8E760490020147200080020704730
:101740000020704738B50446074D0146284604F08E
:101750001DFB284604F03AFB2378012B01D0002022
:1017600038BDFEF775FDFAE79C42002010B5064C27
:1017700000220649204604F001FB0549204604F0FA
:1017800005FB002010BD00BF9C42002060530020DC
:10179000604B0020094BD3F8B832D3F814320BB1A8
:1017A0000120704710B50A460146044C204604F05B
:1017B000E5FA204604F0F0FA10BD00BF9C4200207C
:1017C0007047FEE7FEE7FEE7FEE7704708B5024810
:1017D00002F03AFD08BD00BFFC41002008B50248F8
:1017E00002F032FD08BD00BF8440002008B5024869
:1017F00001F00FFD08BD00BF605B002008B5024886
:1018000002F022FD08BD00BF3C41002008B502489F
:1018100002F01AFD08BD00BF9C41002008B5024837
:1018200000F05EFA08BD00BF6045002008B5024820
:1018300000F056FA08BD00BF6045002008B5024818
:1018400000F04EFA08BD00BF6045002000B583B02F
:10185000002200920D4B596C41F480415964596C3F
:1018600001F48041009100990192196C41F080517E
:1018700019641B6C03F080530193019B0F216FF0DF
:10188000010002F0EBFA03B05DF804FB00380240FF
:1018900010B588B000220146362002F0DFFA36206B
:1018A00002F010FB00240194144B1A6C42F0100259
:1018B0001A641B6C03F010030193019B02A903A897
:1018C00002F09CFA02F06EFA43000D48A0FB0323DD
:1018D0009B0C013B0B480C4A026040F2E732C260AD
:1018E00043600461846001F0B5FD10B1012008B0CF
:1018F00010BD044801F078FCF9E700BF0038024051
:1019000083DE1B43605B00200010004030B404689D
:10191000606A29B940EA0240A062002030BC7047EA
:101920000D46A36A00EB13400023691E8B4209D2C7
:1019300003F1400104EB8101496800EB11400133E0
:10194000DBB2F2E740EA024005F13F0104EB81011E
:101950004860E2E703685962002070472DE9F047CC
:1019600082B0D0F80080CA00521A930003445A6D26
:101970001B6D9A4255D8C1469B1AC1EBC104A20007
:101980000244526C9A4200D31A460C46074602F1B2
:10199000030A4FEA9A0A15E006F1030A4FEA9A0A87
:1019A000E3001B1B9D003D44A96C3B7C0093B3B23C
:1019B000E2B2404601F060F8AB6C3344AB646B6D4F
:1019C0001E446E6509EB441303F510639B699BB2DB
:1019D000534512D3E3001B1B9A003A44516D136D1B
:1019E00099420AD24BB15B1AC4EBC4018A003A4453
:1019F000566C9E42D0D31E46CEE7E3001B1B9800D8
:101A000007443A6D7B6D9A420FD804F00F0401230E
:101A1000A340D8F8344824EA0304C8F83448002026
:101A200000E0012002B0BDE8F0870020FAE7F0B541
:101A30008BB0002800F08A800446056890F8BD331A
:101A400023B3032384F8BD33EB6B13F4807F01D100
:101A500000232361206800F0C3FD254655F8107B64
:101A60006E460FCD0FC60FCD0FC695E8030086E872
:101A70000300231D0ECB384600F0F8FC58B10223BA
:101A800084F8BD33012528460BB0F0BD80F8BC3387
:101A9000FFF714FCD5E70021206800F0A7FD002324
:101AA0006568AB4216D2D900C81A820022440120D0
:101AB00082F83D0082F83C30A2F84230002082F8E3
:101AC0003F0050649064CA1A9100214408650133B4
:101AD000DBB2E5E700239D4216D9D800C11A8A007F
:101AE0002244002182F8FD1182F8FC3182F8FF11B6
:101AF000C2F80412C2F80812C21A90002044C0F8BA
:101B000010120133DBB2E6E7254655F8107B6E462E
:101B10000FCD0FC60FCD0FC695E8030086E8030072
:101B2000231D0ECB384600F0A7FD054620B1022349
:101B300084F8BD330125A6E7002384F8383001235B
:101B400084F8BD33206801F041F99CE701259AE74C
:101B500090F8BC33012B0ED010B50446012380F859
:101B6000BC33006801F026F9206800F033FD002046
:101B700084F8BC0310BD02207047000070B5054614
:101B80000E460368196C03EB461303F53064A36833
:101B90000269012A09D0354A914261D113F4004FFC
:101BA00054D04FF40043A3605DE013F0080F14D04D
:101BB0002F4A914205D913F4004F02D04FF400434D
:101BC000A3602846FFF714FC05F57172012128680F
:101BD00001F058F90823A36045E013F0200F02D06C
:101BE0002023A3603FE013F0280F3CD1204A91420C
:101BF00006D913F4004F03D04FF40043A36032E042
:101C0000F200921B93002B44D3F804222169C1F304
:101C10001201521AC3F81422D3F80412D3F808227E
:101C20000A44C3F80822F1B22846FFF7E9FBD6B907
:101C3000C6EBC606B3002B44D3F810329BB905F5AA
:101C400071720121286801F01DF90CE013F0200FDA
:101C500001D02023A360F1B22846FFF7D1FB02E0B8
:101C6000F1B2FFF7CDFB002070BD00BF0A31544F29
:101C70000A30544F38B5044603681D6C03EB41111C
:101C800001F530618A680369012B0DD0124B9D422A
:101C900014D02046FFF7ACFB104B9D4202D92369BC
:101CA000012B12D0002038BD0C4B9D42F1D912F40B
:101CB000004FEED04FF400438B60EAE712F4004F80
:101CC000E7D04FF400438B60E3E704F57172012124
:101CD000206801F0D7F8E5E70A31544F0A30544F35
:101CE0002DE9F84F04460568284601F0ABF808B125
:101CF000BDE8F88F2F460646206801F073F80028EB
:101D0000F6D0206801F06EF810F0020F04D02268BF
:101D1000536903F002035361206801F063F810F483
:101D2000002F74D1206801F05DF810F4802F40F08E
:101D3000C280206801F056F80028C0F23481206883
:101D400001F050F810F4006F0AD0D5F8083813F0FD
:101D5000010F40F037812268536903F40063536137
:101D6000206801F03FF810F4805F40F02F81206878
:101D700001F038F810F4005F40F08281206801F033
:101D800031F810F0100F14D02268936923F010037B
:101D900093612E6A06F00F07C6F34343022B00F04F
:101DA0008781062B00F0A5812268936943F0100318
:101DB0009361206801F016F810F0080F40F0AB8135
:101DC000206801F00FF810F4801F40F0AD8120680A
:101DD00001F008F810F4001F40F0B081206801F015
:101DE00001F810F0804F40F0B381206800F0FAFF56
:101DF00010F0040F3FF47CAF23685D6815F0040F0A
:101E000040F0AF81226853682B43536070E720682D
:101E100000F0ECFF8046B14625E007EB49130122B4
:101E2000C3F8082B49462046FFF7A8FE2BE0494699
:101E30002046FFF71FFF07EB49130822C3F8082BC2
:101E400024E007EB49132022C3F8082B1AF4005FA3
:101E500005D007EB49134FF40052C3F8082B09F1E2
:101E600001094FEA5808B8F1000F3FF45BAF18F0D2
:101E7000010FF4D05FFA89F1206800F0C7FF8246B5
:101E800010F0010FC9D11AF0080FD0D11AF0100FBD
:101E900004D007EB49131022C3F8082B1AF0200FC7
:101EA000D4D02369012BCCD104F5717201212068B3
:101EB00000F0E8FFC5E7206800F0A0FF8046B146CB
:101EC00031E04FEAC902A2EB090293002344596CA6
:101ED0009A6C0A449A6449E01AF0080F04D007EBA0
:101EE00049130822C3F808291AF0100F04D007EB91
:101EF00049131022C3F808291AF0400F04D007EB49
:101F000049134022C3F808291AF0020F04D007EB46
:101F100049130222C3F808291AF0800F3ED109F1B3
:101F200001094FEA5808B8F1000F3FF402AF18F06A
:101F3000010FF4D05FFA89FB5946206800F06FFF6B
:101F4000824610F0010FC7D009F00F03012101FAFA
:101F500003F2D7F8343823EA0203C7F8343807EB22
:101F60004913C3F8081923698B42AAD05946204661
:101F7000FFF752FA2369012BAED1B9F1000FABD1B3
:101F8000C9EBC902930023441B6D002BA4D104F5B7
:101F900071720121206800F075FF9DE749462046D7
:101FA000FFF7DCFCBBE7D5F8043823F00103C5F8E4
:101FB00004382046FFF770FA2268536903F00043A3
:101FC0005361BCE62046FFF74FFAC4E605F500680A
:101FD000D8F8043023F00103C8F804301021206839
:101FE00000F01CFB6368B34215D907EB46134FF6AC
:101FF0007F31C3F80819D3F8002922F40012C3F87E
:102000000029C3F8081BD3F8002B22F40012C3F8F0
:10201000002B0136E6E7D8F81C3043F00113C8F86E
:102020001C30236BEBB1D8F8843043F00B03C8F8B5
:102030008430D8F8443043F00B03C8F84430D5F866
:10204000003823F4FE63C5F8003804F57172217C72
:10205000206800F017FF2268536903F4805353612E
:1020600085E6D8F8143043F4005343F02B03C8F846
:102070001430D8F8103043F00B03C8F81030DEE706
:10208000206800F0E3FE206800F0C4FBE0602668F2
:1020900001F082FE227B0146304600F025FA204600
:1020A000FFF7CBF92268536903F40053536165E6E7
:1020B00047F6F0731E423FF477AE36094FEAC70980
:1020C000A9EB07034FEA8308A044C6F30A02D8F835
:1020D0000812284600F0F0FDC6F30A06D8F80832C8
:1020E0003344C8F80832D8F814321E44C8F81462D1
:1020F0005AE6082204F57171284600F0DDFDC6F3AA
:102100000A16FB00D91B8A002244D2F814321E445E
:10211000C2F8146248E62046FFF789F9226853693D
:1021200003F0080353614BE600212046FFF7C0F996
:102130002268536903F48013536148E60021204666
:10214000FFF7B0F92268536903F40013536145E6C1
:102150002046FFF7B3F92268536903F080435361C7
:1021600043E62046FFF7B0F94CE690F8BC33012B6C
:102170000DD010B50446012380F8BC3380F8381028
:10218000006800F007FE002084F8BC0310BD0220A8
:102190007047F8B511F0800F27D101F00F05EE0060
:1021A000771BBC00274604F5FC7404440434074440
:1021B000002587F8FD5101F00F012170A260E37046
:1021C000627802B1E180022B1ED090F8BC33012B63
:1021D0001DD00546012380F8BC332146006800F07D
:1021E0002AFB002085F8BC03F8BD01F00F06F500BE
:1021F000AF1BBC0027463834044404343E46064432
:10220000012586F83D50D6E700232371DDE7022043
:10221000EAE738B511F0800F20D101F00F04E20099
:10222000151BAB001D4603F5FC7303440433054442
:10223000002285F8FD2101F00F01197090F8BC23F0
:10224000012A1AD00446012280F8BC2319460068EE
:1022500000F03CFB002084F8BC0338BD01F00F0403
:10226000E200151BAB001D463833034404332C46F3
:102270000444012284F83D20DDE70220EDE770B53B
:1022800001F00F05EE00711B8C0004F5FC74044492
:10229000211D761BB4000444C4F80822C4F810328F
:1022A0000023C4F8143284F8FD3184F8FC5103692A
:1022B000012B06D065B9DAB2006800F04FFB0020B0
:1022C00070BDC5EBC506B4000444C4F80C22F1E7A8
:1022D000DAB2006800F0E4FBF1E701F00F01C1EBB6
:1022E000C1018B001844D0F81402704770B501F09A
:1022F0000F05EE00711B8C0038340444211D761B41
:10230000B4000444A264236500236365012384F8B8
:102310003D3084F83C500369012B06D05DB9DAB238
:10232000006800F01BFB002070BDC5EBC506B400C3
:102330000444E264F2E7DAB2006800F0B1FBF2E7CD
:1023400038B501F00F0543689D4236D811F0800F73
:1023500020D1CA00541AA3001C4603F5FC730344A1
:10236000043322460244002182F8FD1101229A70B2
:102370001D7090F8BC23012A21D00446012280F868
:10238000BC231946006800F0AAFC7DB1002084F847
:10239000BC0338BDEA00511B8B0019463833034497
:1023A00004330144012281F83D20DFE704F5717216
:1023B000217C206800F066FDE8E70120E9E70220C3
:1023C000E7E710B501F00F0443689C422CD811F0E8
:1023D000800F1DD1E3001A1B91000A4601F5FC7124
:1023E000014404310244002382F8FD3100238B7044
:1023F0000C7090F8BC33012B18D00446012380F8F0
:10240000BC33006800F098FC002084F8BC0310BDC9
:10241000E3001A1B91000A4638310144043102449A
:10242000012382F83D30E1E70120F0E70220EEE7EA
:10243000002301330C4A934211D80269002AF8DACA
:10244000036943F00103036100230133064A934209
:1024500007D8026912F0010FF7D10020704703205E
:1024600070470320704700BF400D030084B010B5D3
:10247000044603A880E80E00089B012B1FD1A36B24
:1024800023F48033A363E36823F4840323F040033D
:10249000E360E36823F44013E3600F9B012B09D052
:1024A0002046FFF7C5FF069B012B14D0BDE8104066
:1024B00004B07047E36843F48013E360F0E7E36837
:1024C00043F04003E3602046FFF7B2FFA36B43F401
:1024D0008033A363E7E7A36843F00603A360A36820
:1024E00043F02003A360E1E7022A0AD00921C26871
:1024F00022F47052C260C36843EA8123C3600020A3
:1025000070472A4B0B442A4A93423DD9294B0B442E
:10251000294A93423AD9A1F57403A3F51053274AE7
:10252000934235D9A1F18373A3F5E74302F5C33292
:10253000A03293422ED9224B0B44224A93422BD9EC
:10254000214B0B4402F5922202F57872934225D971
:102550001E4B0B4402F5C32202F5207293421FD991
:10256000A1F1B773A3F5585302F5B71202F55872EB
:10257000934217D9164B0B4402F5122202F5F8626A
:10258000934211D80721B2E70F21B0E70E21AEE741
:102590000D21ACE70C21AAE70B21A8E70A21A6E749
:1025A0000921A4E70821A2E70621A0E7405327FF5D
:1025B000FF340C00401E1BFF3F420F007F4F1200F4
:1025C00060B6E5FE5FE3160000D3CEFEC05BB3FE4F
:1025D000E05459FE836843F0010383600020704794
:1025E000836823F0010383600020704708B5C36847
:1025F00023F0C043C360012909D069B9C36843F01F
:102600008043C360322001F057F8002008BDC36842
:1026100043F00053C360F5E70120F7E7890141F07B
:102620002001016100230133054A934205D8026964
:1026300012F0200FF7D1002070470320704700BF31
:10264000400D03001023036100230133054A934228
:1026500005D8026912F0100FF7D10020704703204F
:10266000704700BF400D0300D0F800381943C0F890
:10267000001800207047000084B0F8B5044607A891
:1026800080E80E00254600230E2B07D803F14002F8
:1026900004EB8202002151600133F5E7119BF3B98D
:1026A000A36B43F40013A363A36B23F40023A3637E
:1026B000A36B23F48023A3630023C4F8003E04F536
:1026C0000066D4F80038C4F800380C9B012B14D1F4
:1026D000099B6BB900212046FFF7C6FF11E0A36BF1
:1026E00023F40013A363A36B43F40023A363E3E782
:1026F00001212046FFF7B8FF03E003212046FFF742
:10270000B3FF10212046FFF789FF074600B10127DC
:102710002046FFF797FF00B1012700233361736163
:10272000F3610AE0C3B94FF00060C2F8000900226B
:102730000A614FF67F328A600133079A9A4210D9B4
:1027400005EB431202F51061D2F800090028E9DB1D
:102750000020C2F80009EAE74FF09040C2F80009F3
:10276000E5E700230AE0C3B94FF00060C2F8000BB0
:1027700000220A614FF67F328A600133079A9A423B
:1027800010D905EB431202F53061D2F8000B002896
:10279000E9DB0020C2F8000BEAE74FF09040C2F8F6
:1027A000000BE5E7336923F4807333610A9B012B47
:1027B0001BD00022A2616FF0804262611BB9A36945
:1027C00043F01003A361A269104B1343A3610D9B57
:1027D0001BB1A36943F00803A361119B012B0DD02A
:1027E0003846BDE8F84004B07047094A3263326B9E
:1027F00042F4803242F003023263DAE7A36943F025
:10280000804343F00403A361EAE700BF00383C8043
:1028100000018000D0F8083813F0060307D0022B1F
:1028200007D0062B01D00F207047022070470020F0
:1028300070470220704770B40B784A78012A22D082
:10284000D0F81C2803F00F060124B44042EA0442E9
:10285000C0F81C2800EB4310D0F8003B13F4004FE5
:102860000ED1D0F8003B8A68C2F30A02C97842EA66
:102870008142134343F0805343F40043C0F8003BCC
:10288000002070BC7047D0F81C4803F00F06B2401F
:1028900092B22243C0F81C2800EB4310D0F8002964
:1028A00012F4004FECD1D0F800298C68C4F30A046C
:1028B000C97844EA814444EA8353134343F0805384
:1028C00043F40043C0F80039DAE7000070B40B7835
:1028D0004A78012A1FD0D0F83C5803F00F06012493
:1028E00004FA06F625EA0645C0F83C58D0F81C580C
:1028F000097801F00F018C4025EA0444C0F81C4817
:1029000000EB4310D0F8002B124B1340C0F8003BF3
:10291000002070BC7047D0F83C6803F00F0402FA46
:1029200004F4A4B226EA0404C0F83C48D0F81C48D9
:10293000097801F00F018A4092B224EA0202C0F83D
:102940001C2800EB4310D0F80039034A1A40C0F8A5
:102950000029DDE70078F3EF007833EC70B40B78F2
:102960004C78012C26D000EB431000F530631C6935
:10297000E40CE4041C611C6924F0FF5424F4C0142A
:102980001C614C690CB18C684C611C6944F40024D6
:102990001C611C698D68C5F312052C431C61012A5A
:1029A00065D0D0F8003B43F00443C0F8003B002062
:1029B00070BC70474C696CBB00EB4314D4F81059E1
:1029C00025F0FF5525F4C015C4F81059D4F8105956
:1029D00045F40025C4F81059D4F81059ED0CED0455
:1029E000C4F81059012A33D000EB4313D3F800295F
:1029F00042F00442C3F800294B69002BD7D0D0F82D
:102A00003428097801F00F040121A1400A43C0F8DD
:102A10003428CCE700EB431404F510642569ED0C71
:102A2000ED042561256925F0FF5525F4C0152561C4
:102A30004E698D68AE4200D94D61256945F4002587
:102A4000256125694E69C6F3120635432561C9E73C
:102A50000A691AB100EB4311C1F8142900EB4310C5
:102A6000D0F8002942F00442C0F800299FE7CA6864
:102A7000002A96D05A6194E770B49DF80C4064B96E
:102A800003339E08B44208D200EB023303F58053AF
:102A900051F8045B1D600134F4E7002070BC7047FE
:102AA000F0B583B00B784C78012C2BD000EB43139E
:102AB00003F530642569ED0CED042561256925F0E9
:102AC000FF5525F4C01525614D69002D40F0C380E8
:102AD00025698E68C6F3120635432561256945F4DC
:102AE00000252561012A00F0CB80CA78012A00F078
:102AF000CD80D3F8002B42F00442C3F8002B002015
:102B000003B0F0BD4C6984BB00EB4314D4F81059FA
:102B100025F0FF5525F4C015C4F81059D4F8105904
:102B200045F40025C4F81059D4F81059ED0CED0403
:102B3000C4F81059012A4CD000EB4313D3F80049D4
:102B400044F00444C3F80049CC78012C6AD04B69A6
:102B5000002BD4D0D0F83428097801F00F040121DB
:102B6000A1400A43C0F83428C9E700EB4314D4F865
:102B70001059ED0CED04C4F81059D4F8105925F093
:102B8000FF5525F4C015C4F81059D4F810694D69E3
:102B90008F683D44013DB5FBF7F5464F07EAC54553
:102BA0003543C4F81059D4F810594E69C6F31206CB
:102BB0003543C4F8105904F51064CD78012DB9D10E
:102BC000256925F0C0452561256945F00055256139
:102BD000B0E70A691AB100EB4314C4F81429CA78A3
:102BE000012A08D000EB4313D3F8002942F0044235
:102BF000C3F8002983E7D0F8082812F4807F08D1B1
:102C000000EB4311D1F8002942F00052C1F800292D
:102C1000E8E700EB4311D1F8002942F08052C1F8F7
:102C20000029DFE7D0F8084814F4807F0CD1D3F8EE
:102C3000004944F00054C3F8004900928B8A0A7896
:102C4000C968FFF719FF5AE7D3F8004944F08054E8
:102C5000C3F80049F1E78E683544013DB5FBF6F550
:102C60002669144F07EAC5473E43266127698E68E7
:102C7000ADB206FB05F5C5F312053D43256131E70D
:102C8000CA68002A3FF431AF62612EE7D0F8082805
:102C900012F4807F06D1D3F8002B42F00052C3F823
:102CA000002B26E7D3F8002B42F08052C3F8002B0C
:102CB0001FE700BF0000F81F033292080023934271
:102CC0000BD210B400F58054246841F8044B013352
:102CD0009342F7D3084610BC7047084670470B78FC
:102CE0004A78012A14D000EB4310D0F8002B002AB8
:102CF00006DB2BB1D0F8003B23F08043C0F8003B4B
:102D0000D0F8003B43F40013C0F8003B00207047AC
:102D100000EB4310D0F80029002A06DB2BB1D0F8D5
:102D2000003923F08043C0F80039D0F8003943F46B
:102D30000013C0F80039E9E70B784A78012A0ED071
:102D400000EB4310D0F8003B23F40013C0F8003B25
:102D5000CB78023BDBB2012B15D90020704700EB8A
:102D60004310D0F8003923F40013C0F80039CB78B1
:102D7000023BDBB2012BF0D8D0F8003943F080538E
:102D8000C0F80039E9E7D0F8003B43F08053C0F8C1
:102D9000003BE2E7D0F8003823F4FE63C0F80038C7
:102DA000D0F80038090101F4FE610B43C0F8003887
:102DB0000020704708B5D0F8043823F00203C0F8AB
:102DC0000438032000F078FC002008BD08B5D0F8D6
:102DD000043843F00203C0F80438032000F06CFC10
:102DE000002008BD4269806910407047D0F818384B
:102DF00000F50060C0691840000C7047D0F8183822
:102E000000F50060C069184080B2704700EB4111C6
:102E1000D1F8082B00F5006040691040704710B4ED
:102E2000D0F81048D0F8343801F00F02D340DB015D
:102E3000DBB2234300EB411000F5106080681840BE
:102E400010BC7047406900F001007047D0F80039AD
:102E500023F4FF6323F00703C0F8003900F5006393
:102E60009A6802F00602042A05D05A6842F4807279
:102E70005A6000207047D0F8002942F00302C0F8E1
:102E80000029F2E710B4046C144B9C4203D9D0F82B
:102E9000003B002B16DB0024C0F8104BD0F8104B81
:102EA00044F40024C0F8104BD0F8104B44F0180440
:102EB000C0F8104BD0F8104B44F0C044C0F8104B91
:102EC000012902D0002010BC7047C0F8142BD0F8A4
:102ED000003B43F08023C0F8003BF3E70A30544F37
:102EE000002800F0A18038B5044690F82030D3B116
:102EF0002268136823F00203136000F0D7FB054635
:102F000023685A6812F0020F10D000F0CFFB401B6C
:102F10000A28F5D9636A43F400336362052384F811
:102F20002030012038BDFDF7F7FEE1E71A6842F0D6
:102F300001021A6000F0BAFB054623685A6812F0D5
:102F4000010F0DD100F0B2FB401B0A28F5D9636ACE
:102F500043F400336362052384F820300120E1E765
:102F6000227E012A3DD01A6822F080021A60637E18
:102F7000012B3BD02268136823F040031360A37E2B
:102F8000012B39D02268136823F020031360E37EFD
:102F9000012B37D02268136843F010031360237F9E
:102FA000012B35D02268136823F008031360637F78
:102FB000012B33D02268136823F004031360A36845
:102FC000E268134322691343626913436268013A5A
:102FD00021681343CB6100206062012384F8203014
:102FE000A0E71A6842F080021A60C0E722681368FE
:102FF00043F040031360C2E72268136843F02003E4
:103000001360C4E72268136823F010031360C6E757
:103010002268136843F008031360C8E72268136846
:1030200043F004031360CAE70120704710B40B6833
:10303000102B16D0036A154A1A404B688C6823433C
:10304000CC6823430C6923434C6943EA44238969D0
:1030500043EA4133134343F008030362002010BCEA
:1030600070470368094A1A404B688C682343CC6850
:1030700023430C6923434C6943EA4423896943EAA7
:103080004133134343F008030360E7E78101F0FF96
:10309000102A0DD0836A0B684A6843EA02238A68C3
:1030A00043EA0243CA6843EA02638362002070472E
:1030B00083680B684A6843EA02238A6843EA02434A
:1030C000CA6843EA02638360F0E7102A0DD0C36A3E
:1030D0000B684A6843EA02238A6843EA0243CA68E3
:1030E00043EA0263C36200207047C3680B684A6802
:1030F00043EA02238A6843EA0243CA6843EA026356
:10310000C360F0E768B370B5044615460E4690F804
:103110002130DBB1214651F8040BFFF787FF6268CD
:1031200031462068FFF7B4FF626829462068FFF740
:10313000CCFF6368102B0ED02268136A43F004039F
:103140001362012384F82130002070BD80F8203004
:10315000FDF702FFDEE72268136843F00403136003
:10316000EFE70120704700283BD010B5044600234C
:10317000836290F85130002B2ED0022384F8513016
:103180002268136823F0400313606368A268134346
:10319000E26813432269134362691343A26902F48C
:1031A00000721343E2691343226A1343A16A22683F
:1031B0000B431360638B03F00403616A22680B43C3
:1031C00053602268D36923F40063D36100206065F3
:1031D000012384F8513010BD80F85030FDF700FF16
:1031E000CBE70120704770470268D36843F00103C2
:1031F000D3600268936803F00703062B03D01368BB
:1032000043F0010313600020704770477047704718
:10321000704710B5044603681A6912F0020F11D006
:10322000DA6812F0020F0DD06FF002021A6101236A
:10323000037703689B6913F0030F70D0FFF7E6FF75
:103240000023237723681A6912F0040F12D0DA687A
:1032500012F0040F0ED06FF004021A6102232377DC
:1032600023689B6913F4407F5FD02046FFF7CEFFB1
:103270000023237723681A6912F0080F12D0DA6846
:1032800012F0080F0ED06FF008021A6104232377A2
:103290002368DB6913F0030F4ED02046FFF7B6FF1B
:1032A0000023237723681A6912F0100F12D0DA680E
:1032B00012F0100F0ED06FF010021A61082323775E
:1032C0002368DB6913F4407F3DD02046FFF79EFF63
:1032D0000023237723681A6912F0010F03D0DA68FC
:1032E00012F0010F36D123681A6912F0800F03D053
:1032F000DA6812F0800F34D123681A6912F0400F97
:1033000003D0DA6812F0400F32D123681A6912F044
:10331000200F03D0DA6812F0200F30D110BDFFF774
:1033200074FF2046FFF773FF8AE72046FFF76DFF23
:103330002046FFF76CFF9BE72046FFF766FF20461D
:10334000FFF765FFACE72046FFF75FFF2046FFF77A
:103350005EFFBDE76FF001021A612046FDF75EFCDB
:10336000C1E76FF080021A61204600F08EF8C3E7D3
:103370006FF040021A612046FFF74AFFC5E76FF081
:1033800020021A61204600F07FF8C7E70368304A40
:10339000904212D0B0F1804F0FD0A2F57C42904203
:1033A0000BD002F58062904207D002F58062904215
:1033B00003D002F57842904203D123F070034A68AB
:1033C0001343234A90422AD0B0F1804F27D0A2F570
:1033D0007C42904223D002F5806290421FD002F5D9
:1033E000806290421BD002F57842904217D002F5DD
:1033F0007052904213D002F5806290420FD002F5D5
:10340000806290420BD0A2F59832904207D002F52C
:103410008062904203D002F58062904203D123F48F
:103420004073CA68134323F080034A69134303605F
:103430008B68C3620B688362054B984203D003F527
:103440008063984201D10B69036301234361704794
:1034500000000140B0B110B5044690F83D3063B1B2
:10346000022384F83D30214651F8040BFFF78EFF0C
:10347000012384F83D30002010BD80F83C30FFF778
:10348000B2FEEDE7012070477047704738B504463B
:103490000268136923F44053C1680B4313618368C6
:1034A0000269134342691343C2691A430168CB6836
:1034B00023F4164323F00C031343CB6002685369D3
:1034C00023F4407381690B435361C369B3F5004F23
:1034D00027D00368484A93426DD002F58062934238
:1034E00069D000F05FFC00EB800000EB80006368B7
:1034F0009B00B0FBF3F0414DA5FB00325109642263
:1035000002FB110213013233A5FB03235B0903F015
:10351000F00202EB011203F00F03216813448B60E9
:1035200068E00368344A934224D002F580629342F3
:1035300020D000F037FC00EB800000EB80006368D7
:103540005B00B0FBF3F02D4DA5FB00325109642266
:1035500002FB1102D3003233A5FB03235B095A009F
:1035600002F4F87202EB011203F00703216813441E
:103570008B603FE000F02CFC00EB800000EB800053
:1035800063685B00B0FBF3F01C4DA5FB00325109F2
:10359000642202FB1102D3003233A5FB03235B0933
:1035A0005A0002F4F87202EB011203F007032168DB
:1035B00013448B601EE000F00BFC00EB800000EB7E
:1035C000800063689B00B0FBF3F00C4DA5FB00325C
:1035D0005109642202FB110213013233A5FB0323BC
:1035E0005B0903F0F00202EB011203F00F03216804
:1035F00013448B6038BD00BF001001401F85EB51A4
:1036000058B310B5044690F839300BB3242384F82E
:1036100039302268D36823F40053D3602046FFF783
:1036200035FF2268136923F49043136122685369BC
:1036300023F02A0353612268D36843F40053D36014
:103640000020E063202384F8393084F83A3010BD3C
:1036500080F83830FDF7D0FDD8E701207047000032
:1036600008B50B4B1A6842F400721A601A6842F4EB
:1036700080621A601A6842F480721A60032000F0B7
:10368000DBFB0020FEF704F9FEF7E0F8002008BDA0
:10369000003C0240034A1168034B1B780B44136043
:1036A000704700BFA05B002060000020014B18683D
:1036B000704700BFA05B002030B583B00190FFF7DA
:1036C000F5FF0546019CB4F1FF3F02D0044B1B7887
:1036D0001C44FFF7EBFF401BA042FAD303B030BD00
:1036E00060000020002800F0CA8170B582B0044656
:1036F000036813F0010F2ED0AD4B9B6803F00C0351
:10370000042B1FD0AA4B9B6803F00C03082B14D08A
:103710002279A84B1A706368002B40D0FFF7C6FFD0
:103720000546A34B1B6813F4003F14D1FFF7BEFFFF
:10373000401B6428F5D90320A8E19D4B5B6813F476
:10374000800FE5D09A4B1B6813F4003F03D06368E9
:10375000002B00F09681236813F0020F4AD0944B9F
:103760009B6813F00C0F2ED0914B9B6803F00C0359
:10377000082B23D0E368002B63D08F4B01221A6003
:10378000FFF794FF05468A4B1B6813F0020F49D1DF
:10379000FFF78CFF401B0228F5D9032076E1FFF7E5
:1037A00085FF0546824B1B6813F4003FD3D0FFF71B
:1037B0007DFF401B6428F5D9032067E17C4B5B68E3
:1037C00013F4800FD6D17A4B1B6813F0020F03D08D
:1037D000E368012B40F057817548036823F0F80334
:1037E0002169F82292FAA2F2B2FA82F201FA02F206
:1037F00013430360236813F0080F46D0636993B343
:103800006E4B01221A60FFF751FF0546684B5B6F54
:1038100013F0020F39D1FFF749FF401B0228F5D9F9
:10382000032033E16248036823F0F8032169F8229A
:1038300092FAA2F2B2FA82F201FA02F213430360A0
:10384000D8E75D4B00221A60FFF730FF0546584B62
:103850001B6813F0020FCDD0FFF728FF401B022892
:10386000F5D9032012E1554B00221A60FFF71EFF25
:1038700005464F4B5B6F13F0020F06D0FFF716FFA4
:10388000401B0228F5D9032000E1236813F0040F40
:1038900058D0474B1B6C13F0805F2BD10023019352
:1038A000434B1A6C42F080521A641B6C03F0805335
:1038B0000193019B0125424B1A6842F480721A6001
:1038C0001B6813F4807F17D0227A3E4B1A70A368CE
:1038D00033B3FFF7EBFE0646354B1B6F13F0020FB9
:1038E0002FD1FFF7E3FE801B41F288339842F3D9D2
:1038F0000320CBE00025DEE7314A136843F48073F0
:103900001360FFF7D3FE06462D4B1B6813F4807F30
:10391000DAD1FFF7CBFE801B0228F5D90320B5E0F2
:10392000FFF7C4FE0646224B1B6F13F0020F08D0B0
:10393000FFF7BCFE801B41F288339842F3D9032085
:10394000A4E0EDB9A369002B00F09F80184A9268AB
:1039500002F00C02082A73D0022B17D01A4B002257
:103960001A60FFF7A3FE0446114B1B6813F0007F9B
:1039700064D0FFF79BFE001B6428F5D9032085E087
:103980000B4A136C23F080531364DBE70E4B0022C9
:103990001A60FFF78BFE0546054B1B6813F0007F8E
:1039A00014D0FFF783FE401B6428F5D903206DE097
:1039B000003802400238024000004742800E474271
:1039C000007000407038024060004742E369226A9C
:1039D0001343616A47F6C07292FAA2F2B2FA82F217
:1039E00001FA02F21343A26A5208013A4FF440313D
:1039F00091FAA1F1B1FA81F18A401343E16A4FF0E3
:103A0000706292FAA2F2B2FA82F201FA02F213435F
:103A1000254A5360254B01221A60FFF747FE0446F2
:103A2000214B1B6813F0007F06D1FFF73FFE001B00
:103A30006428F5D9032029E0002027E0002025E0B4
:103A4000012B25D0184B5B6803F48001E269914299
:103A500020D103F03F02216A8A421DD1C3F38812AC
:103A6000616A8A421AD103F44032A16A8A4217D1AC
:103A700003F07063E26A934214D1002006E0012053
:103A80007047012002E0012000E0002002B070BD7C
:103A90000120FBE70120F9E70120F7E70120F5E726
:103AA0000120F3E70120F1E70038024060004742BF
:103AB00070B588B00C46164600BB00230193204D1C
:103AC0002A6B42F001022A632A6B02F00102019282
:103AD000019A4FF48072039202220492032206920A
:103AE0000593079303A9174800F0FAF9AB6823F090
:103AF000EC6334431C43AC6008B070BD00230293F8
:103B00000F4D2A6B42F004022A632A6B02F0040272
:103B10000292029A4FF4007203920222049203224C
:103B200006920593079303A9074800F0D9F9AB68FB
:103B300023F0784344EAC6041C43AC60DCE700BFD2
:103B4000003802400000024000080240014B012200
:103B50001A6070474C004742314B9B6803F00C03DE
:103B6000042B58D0082B58D170B52D4B5A6802F051
:103B70003F025B6813F4800F2AD0294B5868C0F3CA
:103B800088100546002643011B1A66EB0604A101B6
:103B900041EA93619801C01A61EB0401CB0043EA4A
:103BA0005073C4001946601946EB01014B0243EA09
:103BB000D0534402204619463346FCF7E9FA184B25
:103BC0005B68C3F3014301335B00B0FBF3F070BDEE
:103BD000134B5868C0F388100546002643011B1A92
:103BE00066EB0604A10141EA93619801C01A61EBFA
:103BF0000401CB0043EA5073C4001946601946EB38
:103C000001018B0243EA9053840220461946334651
:103C1000FCF7BEFAD3E7034870470348704700BF7C
:103C20000038024000127A000024F400002800F05E
:103C3000A08070B50446534B1B6803F00F038B4202
:103C400008D2CBB24F4A1370136803F00F038B42B4
:103C500040F09180236813F0020F17D013F0040F87
:103C600004D0494A936843F4E0539360236813F007
:103C7000080F04D0444A936843F460439360424A77
:103C8000936823F0F003A068034393600D46236814
:103C900013F0010F31D06368012B20D0022B25D007
:103CA000394A126812F0020F67D037498A6822F049
:103CB000030213438B60FFF7F9FC0646324B9B6807
:103CC00003F00C036268B3EB820F16D0FFF7EEFC33
:103CD000801B41F288339842F0D9032048E02A4AF9
:103CE000126812F4003FE0D1012041E0264A126838
:103CF00012F0007FD9D101203AE0224B1B6803F07B
:103D00000F03AB4207D9EAB21E4B1A701B6803F0CF
:103D10000F03AB4233D1236813F0040F06D01A4AC5
:103D2000936823F4E053E1680B439360236813F036
:103D3000080F07D0144A936823F46043216943EACB
:103D4000C1039360FFF708FF0F4B9B6803F0F0037C
:103D5000F02292FAA2F2B2FA82F2D3400B4AD35C7A
:103D6000D8400B4B18600B4B1868FDF791FD0020F5
:103D700070BD012070470120FAE70120F8E701201B
:103D8000F6E700BF003C02400038024058720008CD
:103D90006800002064000020014B1868704700BFD5
:103DA0006800002008B5FFF7F7FF074B9B6803F496
:103DB000E0534FF4E05292FAA2F2B2FA82F2D34008
:103DC000024AD35CD84008BD00380240687200083F
:103DD00008B5FFF7E1FF074B9B6803F460434FF41E
:103DE000604292FAA2F2B2FA82F2D340024AD35C63
:103DF000D84008BD00380240687200080F230360F5
:103E00000B4B9A6802F0030242609A6802F0F002DB
:103E100082609A6802F4E052C2609B68DB0803F497
:103E2000E0530361034B1B6803F00F030B60704703
:103E300000380240003C0240074AD36823F4E063A4
:103E40001B041B0C000200F4E060184340F0BF604C
:103E500040F40030D060704700ED00E030B4174B04
:103E6000DB68C3F30223C3F10704042C28BF042436
:103E70001D1D062D01D9033B00E000234FF0FF3547
:103E800005FA04F421EA0401994005FA03F322EA51
:103E900003031943002809DB0901C9B200F160409E
:103EA00000F5614080F8001330BC704700F00F004F
:103EB0000901C9B2024B1954F6E700BF00ED00E05A
:103EC00014ED00E0002807DB00F01F024009012389
:103ED0009340024A42F82030704700BF00E100E002
:103EE000F0B482B0002336E0082400E00024B4409F
:103EF0003C430235694E46F82540694C2568D44359
:103F000004EA05064F6817F4803F01D042EA05062F
:103F1000634D2E606D6804EA05064F6817F4003F94
:103F200001D042EA05065E4D6E60AD6804EA050602
:103F30004F6817F4801F01D042EA0506584DAE6065
:103F4000ED682C404E6816F4001F01D042EA0504CB
:103F5000534AD46001330A6832FA03F400F09A80BD
:103F600001249C402240F5D04D68022D01D0122D35
:103F700010D1DE08083650F826C003F00705AF0060
:103F80000F25BD402CEA050C0D69BD4045EA0C0526
:103F900040F8265006685F000325BD40ED4305EA62
:103FA000060C4E6806F00306BE4046EA0C060660A4
:103FB0004E6806F1FF3CBCF1010F03D9112E01D070
:103FC000122E10D1866805EA060CCE68BE4046EA7D
:103FD0000C068660466826EA04044E68C6F300169E
:103FE0009E4026434660C46825408C68BC402C43F4
:103FF000C4604C6814F0805FACD000240194294C5C
:10400000656C45F480456564646C04F480440194F7
:10401000019C9D08AE1C214C54F8267003F003044B
:10402000A6000F24B44027EA04071F4CA0423FF427
:104030005DAF04F58064A0421ED004F58064A04208
:104040001CD004F58064A0421AD004F58064A0421C
:1040500018D004F58064A04216D004F58064A04214
:1040600014D004F58064A04212D004F58064A0420C
:104070003FF43AAF09243AE7012438E7022436E74F
:10408000032434E7042432E7052430E706242EE72E
:1040900007242CE702B0F0BC704700BF0038014095
:1040A000003C0140003802400000024010B40368A8
:1040B000D9B210390B4AA2FB014212090A4CA25C88
:1040C000C2655F2908D923F47F7323F00303043307
:1040D0008365806D10BC704723F47F7323F0030366
:1040E0008365F6E7ABAAAAAA50720008836A8269C0
:1040F00092B9012B0AD01BB1022B01D000207047CE
:10410000C36A13F0807F28D100207047C36AB3F1DF
:10411000C07F24D000207047B2F5005F09D0022B89
:1041200025D9032B25D1C36A13F0807F23D100202A
:104130007047032B03D8DFE803F01404140A0020AF
:104140007047C36A13F0807F0DD100207047C36AA7
:10415000B3F1C07F09D000207047012070470120D3
:1041600070470120704701207047012070470120EF
:1041700070470020704701207047000070B504466A
:10418000FFF794FA002C5BD00546002384F8343006
:10419000022384F835302268136823F0010313608A
:1041A00023681A6812F0010F0AD0FFF77FFA401B4C
:1041B0000528F5D920236365032084F8350070BDF8
:1041C0001A68204810406168A2680A43E1680A43FF
:1041D00021690A4361690A43A1690A43E1690A4303
:1041E000216A0A430243616A04291ED01A602668C4
:1041F000756925F00705636A1D43042B07D1A36A7F
:104200001D43E36A1BB12046FFF770FF90B975614B
:104210002046FFF74BFFE26D3F2393408360002071
:104220006065012384F83530C9E7E16A206B0143FA
:104230000A43DBE740236365012084F83500BEE7CD
:104240000120BCE73F8010F0F0B583B004460023A6
:104250000193724B1D68724BA3FB0535AD0A876D48
:104260003E68C26D08239340334210D003681A6839
:1042700012F0040F0BD01A6822F004021A60C26D0B
:1042800008239340BB60436D43F001034365E26D37
:1042900001239340334209D02268526912F0800F03
:1042A00004D0BB60636D43F002036365E26D0423D9
:1042B0009340334209D02268126812F0020F04D0F2
:1042C000BB60636D43F004036365E26D10239340AC
:1042D000334224D02268126812F0080F1FD0BB604E
:1042E00023681A6812F4802F0DD01B6813F4002F76
:1042F00004D1236C9BB12046984710E0A36C73B1A6
:10430000204698470BE01A6812F4807F03D11A68A0
:1043100022F008021A60236C0BB120469847E26D28
:1043200020239340334255D02268126812F0100FB8
:1043300050D0BB6094F83530DBB2052B0ED023682B
:104340001A6812F4802F33D01B6813F4002F2AD17F
:10435000636C002B3ED0204698473BE022681368F0
:1043600023F0160313602268536923F0800353611E
:10437000236CA3B12268136823F008031360E26D75
:104380003F239340BB60002384F83430012384F83A
:104390003530236D002B3FD0204698473CE0A36C7E
:1043A000002BE7D1EBE7E36BA3B12046984711E080
:1043B0001A6812F4807F09D11A6822F010021A607C
:1043C000002384F83430012384F83530E36B0BB1DB
:1043D00020469847636DFBB1636D13F0010F17D052
:1043E000052384F835302268136823F00103136035
:1043F000019B01330193AB4204D823681B6813F07F
:10440000010FF5D1002384F83430012384F83530CE
:10441000E36C0BB12046984703B0F0BD6800002064
:10442000B5814E1B0C4B1A6842F001021A60002144
:1044300099601A6822F0847222F480321A60074A66
:104440005A601A6822F480221A60D960044B4FF037
:1044500000629A60704700BF0038024010300024AC
:1044600000ED00E000F1080343604FF0FF3282608E
:10447000C36003610023036070470023036170473A
:1044800043684B609A688A6051609960086103686C
:1044900001330360704730B40D68B5F1FF3F02D0BF
:1044A00000F1080202E0026904E01A4653681C6841
:1044B000AC42FAD953684B6099608A6051600861D8
:1044C00003680133036030BC704703694168826848
:1044D0008A60416851605A68824206D000220261B7
:1044E0001A68013A1A601868704782685A60F5E7DE
:1044F000084B1B681B6823B9074B4FF0FF321A604B
:104500007047044B1B68DB68DB685A68024B1A6013
:10451000704700BF08020020E002002010B50446EA
:10452000006B00F055FC204600F052FC10BD2DE958
:10453000F04780469946089D099F0A9C266B02F128
:104540008042013A06EB820626F0070600230F2B75
:1045500006D8CA5CE01880F834200AB10133F6E7C7
:10456000002384F84330062D00D90625E5626564F2
:104570004FF0000AC4F848A0201DFFF77EFF04F1A9
:104580001800FFF77AFF2461C5F10705A561646291
:10459000C4F84CA084F850A04A464146304600F08A
:1045A0007FFC206007B13C60BDE8F08738B500248F
:1045B000062C08D804EB840293000E481844FFF739
:1045C00051FF0134F4E70C4D2846FFF74BFF0B4C2D
:1045D0002046FFF747FF0A48FFF744FF0948FFF767
:1045E00041FF0948FFF73EFF084B1D60084B1C6068
:1045F00038BD00BF10020020B4020020C802002015
:10460000E80200201403002000030020080200201C
:104610000C02002010B5044600F06CFC204A136820
:10462000013313601F4B1B685BB11F4B1B686BB9D9
:104630001C4B1B68DA6AE36A9A4207D8194B1C6064
:1046400004E0184B1C601368012B26D0174A13682E
:1046500001331360E36A01229A4015490868024356
:104660000A6003EB83039A00211D12481044FFF7F0
:1046700007FF00F061FC0C4B1B686BB1094B1B681A
:10468000DA6AE36A9A4207D20B4B4FF080521A6003
:10469000BFF34F8FBFF36F8F10BDFFF787FFD5E7D5
:1046A0009C02002004020020FC020020AC0200203A
:1046B000B00200201002002004ED00E00F4B1B6848
:1046C000D3B110B500F016FC0D4BDB68DC68201D83
:1046D000FFF7FBFE0B4A1368013B1360074A1368A0
:1046E000013B136000F028FC2046FFF717FF034B47
:1046F0001B68002BE6D110BD704700BFA002002050
:10470000140300209C02002008B5FFF7D7FF064BDA
:104710001B68012BF9D9054B4FF080521A60BFF38B
:104720004F8FBFF36F8FF0E71002002004ED00E021
:1047300070B504460E461D4B1D681D4B18680430AD
:10474000FFF7C3FE50B91A4B1B68DA6A012303FA5C
:1047500002F218490B6823EA02030B60B4F1FF3F31
:104760000DD02C44124B1B685C60A54210D9124B33
:1047700018680F4B19680431FFF78DFE70BD002ECD
:10478000EFD00B4B196804310C48FFF779FEF5E7C1
:104790000B4B1868064B19680431FFF77CFE094B78
:1047A0001B68A342EAD9074B1C60E7E728030020F7
:1047B00004020020B00200200C02002000030020B0
:1047C00008020020E00200202DE9F04385B00746F2
:1047D000884614469946900000F076FAE8B10646FD
:1047E000542000F071FA054698B10663D5B1002354
:1047F000039302950D9B01930C9B00934B4622461D
:1048000041463846FFF793FE2846FFF703FF012095
:1048100005E0304600F0DCFAE8E74FF0FF3005B085
:10482000BDE8F0834FF0FF30F9E7000000B583B03A
:10483000174B019300230093802216491648FFF777
:10484000C3FF012805D0B0F1FF3F17D003B05DF8DA
:1048500004FB4FF0500383F31188BFF36F8FBFF356
:104860004F8F0E4B4FF0FF321A600D4B01221A6032
:104870000C4B00221A6000F0CFFBE7E74FF050032B
:1048800083F31188BFF36F8FBFF34F8FFEE700BF35
:10489000DC0200207072000809470008E0020020D6
:1048A000FC02002028030020024A13680133136031
:1048B000704700BFA8020020F8B53A4B1B68002BD8
:1048C00064D1394B1D6801351D60C5B9374B1B6874
:1048D0001B6843B14FF0500383F31188BFF36F8F10
:1048E000BFF34F8FFEE7314A1168314B18681060F3
:1048F0001960304A136801331360FFF7F9FD2E4B3E
:104900001B68AB4238D900242C4B1B68DB6A03EBD5
:1049100083039A002A4B9B58012B3CD901243AE08F
:104920000124224B1B681B6843B3204B1B68DB68C8
:10493000DE6873689D4226D3371D3846FFF7C5FDF4
:10494000B36A1BB106F11800FFF7BFFDF36A01223D
:104950009A401C49086802430A6003EB83039A00EB
:10496000394617481044FFF78BFDF26A134B1B685A
:10497000DB6A9A42D4D2D4E70024D2E70E4B4FF040
:10498000FF321A60C0E70C4A1360BDE70E4A136895
:104990000133136000240D4B1B6803B10124204632
:1049A000F8BD00BFA8020020280300200802002054
:1049B0000C020020E4020020E0020020040200209B
:1049C00010020020B0020020A40200202C030020CE
:1049D00038B5354B1B6843B94FF0500383F311884A
:1049E000BFF36F8FBFF34F8FFEE700F083FA2E4BBC
:1049F0001A68013A1A601B68002B4DD12B4B1B68BB
:104A00000BB9002449E00024294B1B681BB3284B39
:104A1000DB68DC6804F11800FFF757FD251D284608
:104A2000FFF753FDE36A01229A40224908680243D6
:104A30000A6003EB83039A0029461F481044FFF7DE
:104A40001FFDE26A1D4B1B68DB6A9A42DCD31C4BDC
:104A500001221A60D8E70CB1FFF74AFD194B1C6818
:104A600074B9174B1B68E3B1174B4FF080521A60B3
:104A7000BFF34F8FBFF36F8F01240EE0013C07D0CF
:104A8000FFF71AFF0028F9D00D4B01221A60F5E755
:104A90000C4B00221A60E4E7002400F04DFA204697
:104AA00038BD0024F9E700BFA80200209C020020C6
:104AB000E8020020B00200201002002004020020C2
:104AC0002C030020A402002004ED00E010B5A8B1E2
:104AD00004460F4B1B6843B14FF0500383F311881A
:104AE000BFF36F8FBFF34F8FFEE7FFF7DDFE0021AF
:104AF0002046FFF71DFEFFF76BFF38B9054B4FF05F
:104B000080521A60BFF34F8FBFF36F8F10BD00BF8D
:104B1000A802002004ED00E0204B1B681BB1204BD5
:104B200001221A6070471E4B00221A601D4B1B6841
:104B3000B3FA83F3DBB2C3F11F0303EB83018A00F3
:104B400019498A5842B94FF0500383F31188BFF3D3
:104B50006F8FBFF34F8FFEE710B413489A00D4183D
:104B6000A10001444C6864684C601A44910008310B
:104B7000084484420AD003EB83039A000A4B13448F
:104B80005B68DA68094B1A6010BC7047606803EB19
:104B900083029100044A0A445060ECE7A802002016
:104BA0002C030020B002002010020020040200208C
:104BB000842801D0033070470020704708B5FFF704
:104BC00035FE002008BDF0B585B00F464468056885
:104BD0000669B0F90800FFF7EBFF03AB0193009003
:104BE0003B46B2B229462046FFF7EEFD012802D12E
:104BF000039805B0F0BD0020FBE708B5034600B9F7
:104C000001231846FFF762FF002008BD124A12F088
:104C1000070F07D0D11D21F00701C1F570531344D0
:104C20000A4601E04FF470530C48026000214160D5
:104C30001344083B23F007030948036059601960D7
:104C4000991A51601360074B1960074B1960074BA5
:104C50004FF000421A60704734030020403F0020AC
:104C6000300300203C3F0020383F0020343F00202C
:104C700010B4134A00E01A4613688342FBD351680C
:104C80005418844209D041684418A3420AD00360F2
:104C9000904200D0106010BC7047406801445160E1
:104CA0001046F0E7074C2468A34206D05B6819441D
:104CB000416013681B680360EAE70460E8E700BF2F
:104CC000403F00203003002070B50446FFF7ECFDA4
:104CD0003A4B1B68BBB13A4B1B681C4256D1ACB176
:104CE000083414F0070F11D024F00704083404F03E
:104CF00007035BB14FF0500383F31188BFF36F8F4D
:104D0000BFF34F8FFEE7FFF781FFE4E7002C3FD0B2
:104D10002C4B1B68A3424AD32B4B1D6801E02B464A
:104D200015466A68A24202D22A68002AF7D1234AAD
:104D30001268AA423DD01E6808362A681A606B685D
:104D40001B1B102B10D9281910F0070F08D04FF09B
:104D5000500383F31188BFF36F8FBFF34F8FFEE7CC
:104D600043606C60FFF784FF6A6816490B689B1A02
:104D70000B60164909688B4201D214490B60104B35
:104D80001B6813436B6000232B6002E0002600E0E9
:104D90000026FFF71DFE16F0070F0CD04FF0500352
:104DA00083F31188BFF36F8FBFF34F8FFEE70026A9
:104DB000EFE70026EDE7304670BD00BF300300206E
:104DC000343F0020383F0020403F00203C3F00207F
:104DD00080B338B50446A0F1080550F8042C1649F4
:104DE00009680A4208D14FF0500383F31188BFF3DA
:104DF0006F8FBFF34F8FFEE750F8080C40B14FF0B4
:104E0000500383F31188BFF36F8FBFF34F8FFEE71B
:104E100022EA010244F8042CFFF746FD54F8041C72
:104E2000064A13680B4413602846FFF721FFFFF77B
:104E3000CFFD38BD704700BF343F0020383F002011
:104E400082B0002301930D4B1B68B3F1FF3F08D0E4
:104E50004FF0500383F31188BFF36F8FBFF34F8F71
:104E6000FEE74FF0500383F31188BFF36F8FBFF35A
:104E70004F8F019B002BFCD002B070476C000020CC
:104E800006480068006880F3088862B661B6BFF320
:104E90004F8FBFF36F8F00DF00BF000008ED00E011
:104EA0004FF0807340F8043C21F0010140F8081CE9
:104EB000034B40F80C3C40F8202C4038704700BFB2
:104EC000414E00080000000000000000000000004B
:104ED000074B19680868B0E8F00F80F30988BFF342
:104EE0006F8F4FF0000080F311884EF00D0E704769
:104EF000040200204FF0500383F31188BFF36F8F3B
:104F0000BFF34F8F0A4A136801331360012B00D09F
:104F10007047084B1B6813F0FF0FF9D04FF0500398
:104F200083F31188BFF36F8FBFF34F8FFEE700BF8E
:104F30006C00002004ED00E0094B1B6843B94FF002
:104F4000500383F31188BFF36F8FBFF34F8FFEE7DA
:104F5000013B034A13600BB983F31188704700BF0C
:104F60006C000020000000000000000000000000B5
:104F7000EFF30980BFF36F8F0D4B1A6820E9F00F34
:104F800010602DE908404FF0500080F31188FFF7C2
:104F9000C3FD4FF0000080F31188BDE80840196898
:104FA0000868B0E8F00F80F30988BFF36F8F70478F
:104FB0000402002008B54FF0500383F31188BFF3BB
:104FC0006F8FBFF34F8FFFF777FC18B1034B4FF094
:104FD00080521A60002383F3118808BD04ED00E0BD
:104FE000084A0023136008490B60084B1B680849F6
:104FF000A1FB03139B09013B06490B6007231360C8
:10500000704700BF10E000E018E000E068000020FA
:10501000D34D621014E000E010B582B0274B1A782F
:10502000D2B20192FF221A701B78DBB28DF80330E6
:105030009DF8033003F05003214A1370214B0722DF
:105040001A609DF8033013F0800F0AD01D4A1368D0
:10505000013B13609DF803305B00DBB28DF8033039
:10506000EFE7184B1B68032B08D04FF0500383F376
:105070001188BFF36F8FBFF34F8FFEE71B0203F45E
:10508000E063104A1360019BDBB20C4A13700E4BB5
:105090001A6842F470021A601A6842F070421A608C
:1050A000FFF79EFF0024094B1C60FFF7E9FEFFF7A6
:1050B00033FDFFF7C5FE204602B010BD00E400E05E
:1050C000483F00204C3F002020ED00E06C00002015
:1050D00098B108B50346D0F8B40210B10020C3F867
:1050E000B40209B1C3F8B0121846012380F89C320B
:1050F0000270FCF7EFF9002008BD0220704719B1DB
:10510000C0F8B412002070470220704708B5FCF7C1
:1051100042FA002008BD08B5D0F8B43233B11B689C
:10512000984708B9002008BD0220FCE70220FAE7F2
:1051300008B5D0F8B4325B689847002008BD38B590
:10514000044600F52A75284600F04CF90123C4F8FE
:105150009432B4F8AE32C4F8983294F8A81201F040
:105160001F03012B0FD05AB23AB1022B10D001F01D
:1051700080012046FCF72AFA03E02946204600F089
:10518000DFFA002038BD2946204600F00DFBF8E785
:105190002946204600F038FBF3E738B50446A9BBA2
:1051A0001046D4F89432032B03D0052B25D00020D1
:1051B00038E0D4F86031D4F8642193420DD99B1AB9
:1051C000C4F860319A4206D99AB20146204600F0EE
:1051D00062FC002026E092B2F7E7D4F8B4321B69F3
:1051E0001BB194F89C22032A04D0204600F05BFCFB
:1051F000002017E020469847F7E70025C4F89452AE
:1052000029462046FCF7E2F928460BE00A46D0F88A
:10521000B4329B693BB190F89C12032905D1114629
:105220009847002038BD0220FCE70220FAE710B5BD
:105230000446002954D11046D4F89432022B0CD0E5
:10524000042B00D01BB980212046FCF7BFF994F84D
:10525000A032012B40D0002010BD236A626A934225
:105260001BD8E169B1FBF2F302FB13132BB98A429D
:1052700003D8D4F8983299421DD3D4F8B432DB68FD
:105280001BB194F89C22032A23D080212046FCF7EE
:105290009DF9204600F012FCD9E79A1A226292B2D8
:1052A0000146204600F0E0FB00231A46194620463E
:1052B000FCF7ACF9CBE700221146204600F0D4FB06
:1052C0000021C4F898120B460A462046FCF79EF9C6
:1052D000BDE720469847D8E7002084F8A002BBE746
:1052E0000A46D0F8B4325B693BB190F89C120329AE
:1052F00005D1114698470020AEE70220ACE7022016
:10530000AAE770B50446402300221146FCF74BF98A
:105310000125C4F858514026C4F864613346002280
:1053200080212046FCF73FF9A561666284F89C5213
:105330000023C4F894326360C4F8A432D4F8B832BD
:105340002BB1D4F8B4325B68002120469847002086
:1053500070BD01740020704790F89C3280F89D3237
:10536000042380F89C320020704790F89C32042B74
:1053700001D00020704790F89D3280F89C32F8E709
:1053800008B590F89C32032B01D0002008BDD0F85E
:10539000B432DB69002BF8D09847F6E7002070475D
:1053A000002070470020704708B5012280F89C2239
:1053B000D0F8B422526801799047002008BD00233C
:1053C00002781AB10133DBB20130F9E718467047B1
:1053D00008B54B88012B00D008BDC0F8A43200F0FE
:1053E00062FBF9E70B7803704B7843708B78CA78CF
:1053F00003EB022343800B794A7903EB022383807A
:105400008B79CA7903EB0223C380704710B5044639
:105410008021FCF7DBF800212046FCF7D7F810BD0F
:1054200030B583B005460C460023ADF806304A88F7
:10543000130A013B062B00F2A480DFE803F00418F6
:105440002CA2A2869300D0F8B0321B680DF10601A1
:10545000007C9847BDF806201AB1E388002B40F085
:105460009480E388002B00F09A8003B030BD037C69
:1054700043B9D0F8B4329B6A0DF106009847022375
:105480004370E7E7D0F8B432DB6A0DF106009847C5
:1054900002234370DEE7D2B2052A52D8DFE802F0D9
:1054A00003101D2A3744D0F8B0325B6823B10DF1E8
:1054B0000601007C9847CDE72146FFF7A7FFD4E718
:1054C000D0F8B0329B6823B10DF10601007C9847FB
:1054D000C0E72146FFF79AFFC7E7D0F8B032DB6894
:1054E00023B10DF10601007C9847B3E72146FFF791
:1054F0008DFFBAE7D0F8B0321B6923B10DF1060178
:10550000007C9847A6E72146FFF780FFADE7D0F87B
:10551000B0325B6923B10DF10601007C984799E731
:105520002146FFF773FFA0E7D0F8B0329B6923B1A3
:105530000DF10601007C98478CE72146FFF766FFD6
:1055400093E72146FFF762FF8FE7037C33B9D0F87A
:10555000B4325B6B0DF1060098477BE72146FFF7FD
:1055600055FF82E7037C43B9D0F8B4321B6B0DF1D1
:1055700006009847072343706CE72146FFF746FF74
:1055800073E72146FFF742FF6FE79A4228BF1A46AA
:10559000ADF806200146284600F059FA61E7284692
:1055A00000F081FA61E738B504468B88F3B9CB88FF
:1055B000E3B94B887F2B19D803F07F0590F89C3214
:1055C000032B0CD080F89E522946FCF70FF820469A
:1055D00000F069FA35B1022384F89C3209E0FFF744
:1055E00015FF06E0012384F89C3202E02046FFF715
:1055F0000DFF38BD38B504460D468978284B197023
:1056000001290ED890F89C32022B0ED0032B21D00A
:105610002946FFF7FBFE224B19782046FFF788FD4D
:1056200002E02946FFF7F2FE38BD81B14160032355
:1056300080F89C32FFF76FFD022803D0204600F06F
:1056400032FAF1E729462046FFF7E0FEECE700F0EA
:105650002AFAE9E789B1436899421DD0D9B2FFF728
:1056600067FD0F4B197861602046FFF754FD022853
:105670000DD0204600F017FAD6E7022380F89C32BE
:105680004160FFF755FD204600F00DFACCE72946B2
:105690002046FFF7BBFEC7E700F005FAC4E700BFEE
:1056A000503F002008B5CB88012B0CD190F89C32DC
:1056B0005AB29AB1022B09D9032B0FD10122011D35
:1056C00000F0C5F901E0FFF7A1FE08BD0146002387
:1056D00041F8083F012200F0BAF9F6E7FFF796FE1D
:1056E000F3E708B590F89C32013B022B12D8CB8827
:1056F000022B0CD10123C360D0F8A4320BB10323D9
:10570000C360022200F10C0100F0A1F908BDFFF70F
:105710007DFEFBE7FFF77AFEF8E708B590F89C32CC
:10572000013B022B09D84B88012B00D008BD002378
:10573000C0F8A43200F0B7F9F8E7FFF767FEF5E725
:1057400008B50B7803F06003202B05D0402B03D065
:1057500043B1FFF75BFE03E0D0F8B4329B68984793
:10576000002008BD4B78092B1BD8DFE803F0111788
:105770001A141A08051A0E0BFFF752FEF0E7FFF78E
:1057800012FFEDE7FFF736FFEAE7FFF78BFFE7E7EA
:10579000FFF7A7FFE4E7FFF71BFEE1E7FFF7BDFF19
:1057A000DEE7FFF733FEDBE738B505460C460B783E
:1057B00003F06003202B06D0402B04D01BB1FFF771
:1057C00025FE002038BD95F89C32013B022B16D8EF
:1057D0002379012B0ED8D5F8B4329B682146284690
:1057E0009847E388002BECD10028EAD1284600F046
:1057F0005AF9E6E721462846FFF708FEE1E7214689
:105800002846FFF703FEDCE738B504468A880B78A4
:1058100003F06003202B08D0D0B2402B05D05BB141
:105820002046FFF7F3FD002005E0D4F8B4329B6872
:1058300020469847002038BD202B13D04B78012BF1
:1058400039D05DB2002D64D0032B40F0DE8094F897
:105850009C32022B0CD0032B1CD02046FFF7D6FD28
:105860000020E8E7D4F8B4329B6820469847E2E786
:1058700008B1802804D12046FFF7C8FD0020DAE7F0
:1058800001462046FBF7A2FE80212046FBF79EFE44
:105890000020D0E74B8823B918B1802801D0CB88ED
:1058A00023B1204600F0FFF80020C4E7014620465F
:1058B000FBF78CFEF5E794F89C32022B06D0032B05
:1058C00016D02046FFF7A2FD0020B4E708B18028DB
:1058D00004D12046FFF79AFD0020ACE701462046A0
:1058E000FBF774FE80212046FBF770FE0020A2E744
:1058F0004B88002B40F08E8010F07F0F04D12046A3
:1059000000F0D1F8002096E701462046FBF766FE3E
:10591000F5E794F89C32022B06D0032B2AD02046C0
:10592000FFF774FD002086E708B1802813D112F03C
:10593000800F15D100F07F0000EB8000830003F59D
:10594000A8712144043100250D600222204600F098
:105950007EF828466FE72046FFF758FD00206AE7EB
:1059600000F07F0000EB8000830003F11001214470
:105970000431E8E752B2002A1FDB00F00F0303EB0B
:1059800083039D002544D5F8583123B3002A27DB33
:1059900000F07F0202EB8202930003F5A875254414
:1059A000043508B1802825D100232B600222294626
:1059B000204600F04CF800203DE700F00F0303EB19
:1059C00083039D002544AB69002BDFD12046FFF700
:1059D0001DFD00202FE72046FFF718FD00202AE7D5
:1059E00000F07F0202EB8202930003F110052544D0
:1059F0000435D6E701462046FBF7A4FD10B101238C
:105A00002B60D3E700232B60D0E72046FFF7FEFC96
:105A1000002010E700200EE7C0B170B50D46164615
:105A20000446FFF7CCFC013040003080287003238F
:105A30006B700223217841B101345A1CD2B2E9546F
:105A40000233DBB20021A954F4E770BD704710B5F2
:105A500013460222C0F89422C36103620A46002161
:105A6000FBF7CCFD002010BD08B513460A46002107
:105A7000FBF7C4FD002008BD10B513460322C0F893
:105A80009422C0F85C31C0F860310A460021FBF76F
:105A9000BDFD002010BD08B513460A460021FBF7E6
:105AA000B5FD002008BD08B50423C0F894320023DA
:105AB0001A461946FBF7A2FD002008BD08B50523CC
:105AC000C0F8943200231A461946FBF79FFD0020C8
:105AD00008BD10B5D0F8B842D0F8BC325BB194F82C
